{
  "contractName": "Messenger",
  "abi": [
    {
      "anonymous": false,
      "inputs": [
        {
          "indexed": true,
          "internalType": "address",
          "name": "_receiver",
          "type": "address"
        },
        {
          "components": [
            {
              "internalType": "string",
              "name": "from",
              "type": "string"
            },
            {
              "internalType": "string",
              "name": "message",
              "type": "string"
            }
          ],
          "indexed": false,
          "internalType": "struct Message",
          "name": "_message",
          "type": "tuple"
        }
      ],
      "name": "newMessage",
      "type": "event"
    },
    {
      "inputs": [
        {
          "internalType": "string",
          "name": "to",
          "type": "string"
        },
        {
          "internalType": "string",
          "name": "data",
          "type": "string"
        }
      ],
      "name": "send",
      "outputs": [
        {
          "internalType": "bool",
          "name": "",
          "type": "bool"
        }
      ],
      "stateMutability": "nonpayable",
      "type": "function"
    },
    {
      "inputs": [
        {
          "internalType": "string",
          "name": "name",
          "type": "string"
        }
      ],
      "name": "register",
      "outputs": [],
      "stateMutability": "nonpayable",
      "type": "function"
    },
    {
      "inputs": [],
      "name": "getMessages",
      "outputs": [
        {
          "components": [
            {
              "internalType": "string",
              "name": "from",
              "type": "string"
            },
            {
              "internalType": "string",
              "name": "message",
              "type": "string"
            }
          ],
          "internalType": "struct Message[]",
          "name": "",
          "type": "tuple[]"
        }
      ],
      "stateMutability": "view",
      "type": "function",
      "constant": true
    },
    {
      "inputs": [],
      "name": "isRegistered",
      "outputs": [
        {
          "internalType": "string",
          "name": "",
          "type": "string"
        }
      ],
      "stateMutability": "view",
      "type": "function",
      "constant": true
    }
  ],
  "bytecode": "0x608060405234801561000f575f80fd5b50610fa18061001d5f395ff3fe608060405234801561000f575f80fd5b506004361061004a575f3560e01c8063223668441461004e5780635ff6cbf31461006c578063bd6de11c1461008a578063f2c298be146100ba575b5f80fd5b6100566100d6565b60405161006391906107f7565b60405180910390f35b61007461022e565b604051610081919061095b565b60405180910390f35b6100a4600480360381019061009f91906109e4565b6103e4565b6040516100b19190610a7c565b60405180910390f35b6100d460048036038101906100cf9190610a95565b61066a565b005b606060025f3373ffffffffffffffffffffffffffffffffffffffff1673ffffffffffffffffffffffffffffffffffffffff1681526020019081526020015f205f9054906101000a900460ff16156101f25760015f3373ffffffffffffffffffffffffffffffffffffffff1673ffffffffffffffffffffffffffffffffffffffff1681526020019081526020015f20805461016f90610b0d565b80601f016020809104026020016040519081016040528092919081815260200182805461019b90610b0d565b80156101e65780601f106101bd576101008083540402835291602001916101e6565b820191905f5260205f20905b8154815290600101906020018083116101c957829003601f168201915b5050505050905061022b565b6040518060400160405280600481526020017f4e4f4e450000000000000000000000000000000000000000000000000000000081525090505b90565b606060035f3373ffffffffffffffffffffffffffffffffffffffff1673ffffffffffffffffffffffffffffffffffffffff1681526020019081526020015f20805480602002602001604051908101604052809291908181526020015f905b828210156103db578382905f5260205f2090600202016040518060400160405290815f820180546102bc90610b0d565b80601f01602080910402602001604051908101604052809291908181526020018280546102e890610b0d565b80156103335780601f1061030a57610100808354040283529160200191610333565b820191905f5260205f20905b81548152906001019060200180831161031657829003601f168201915b5050505050815260200160018201805461034c90610b0d565b80601f016020809104026020016040519081016040528092919081815260200182805461037890610b0d565b80156103c35780601f1061039a576101008083540402835291602001916103c3565b820191905f5260205f20905b8154815290600101906020018083116103a657829003601f168201915b5050505050815250508152602001906001019061028c565b50505050905090565b5f80604051806040016040528060015f3373ffffffffffffffffffffffffffffffffffffffff1673ffffffffffffffffffffffffffffffffffffffff1681526020019081526020015f20805461043990610b0d565b80601f016020809104026020016040519081016040528092919081815260200182805461046590610b0d565b80156104b05780601f10610487576101008083540402835291602001916104b0565b820191905f5260205f20905b81548152906001019060200180831161049357829003601f168201915b5050505050815260200185858080601f0160208091040260200160405190810160405280939291908181526020018383808284375f81840152601f19601f82011690508083019250505050505050815250905060035f808888604051610517929190610b79565b90815260200160405180910390205f9054906101000a900473ffffffffffffffffffffffffffffffffffffffff1673ffffffffffffffffffffffffffffffffffffffff1673ffffffffffffffffffffffffffffffffffffffff1681526020019081526020015f2081908060018154018082558091505060019003905f5260205f2090600202015f909190919091505f820151815f0190816105b89190610d64565b5060208201518160010190816105ce9190610d64565b5050505f86866040516105e2929190610b79565b90815260200160405180910390205f9054906101000a900473ffffffffffffffffffffffffffffffffffffffff1673ffffffffffffffffffffffffffffffffffffffff167f248df11ccc4851646f8ff65e52d2d63ac6b52f435a05ed805744f23f8a68994d826040516106559190610e74565b60405180910390a26001915050949350505050565b335f838360405161067c929190610b79565b90815260200160405180910390205f6101000a81548173ffffffffffffffffffffffffffffffffffffffff021916908373ffffffffffffffffffffffffffffffffffffffff160217905550600160025f3373ffffffffffffffffffffffffffffffffffffffff1673ffffffffffffffffffffffffffffffffffffffff1681526020019081526020015f205f6101000a81548160ff021916908315150217905550818160015f3373ffffffffffffffffffffffffffffffffffffffff1673ffffffffffffffffffffffffffffffffffffffff1681526020019081526020015f209182610768929190610e9e565b505050565b5f81519050919050565b5f82825260208201905092915050565b5f5b838110156107a4578082015181840152602081019050610789565b5f8484015250505050565b5f601f19601f8301169050919050565b5f6107c98261076d565b6107d38185610777565b93506107e3818560208601610787565b6107ec816107af565b840191505092915050565b5f6020820190508181035f83015261080f81846107bf565b905092915050565b5f81519050919050565b5f82825260208201905092915050565b5f819050602082019050919050565b5f82825260208201905092915050565b5f61085a8261076d565b6108648185610840565b9350610874818560208601610787565b61087d816107af565b840191505092915050565b5f604083015f8301518482035f8601526108a28282610850565b915050602083015184820360208601526108bc8282610850565b9150508091505092915050565b5f6108d48383610888565b905092915050565b5f602082019050919050565b5f6108f282610817565b6108fc8185610821565b93508360208202850161090e85610831565b805f5b85811015610949578484038952815161092a85826108c9565b9450610935836108dc565b925060208a01995050600181019050610911565b50829750879550505050505092915050565b5f6020820190508181035f83015261097381846108e8565b905092915050565b5f80fd5b5f80fd5b5f80fd5b5f80fd5b5f80fd5b5f8083601f8401126109a4576109a3610983565b5b8235905067ffffffffffffffff8111156109c1576109c0610987565b5b6020830191508360018202830111156109dd576109dc61098b565b5b9250929050565b5f805f80604085870312156109fc576109fb61097b565b5b5f85013567ffffffffffffffff811115610a1957610a1861097f565b5b610a258782880161098f565b9450945050602085013567ffffffffffffffff811115610a4857610a4761097f565b5b610a548782880161098f565b925092505092959194509250565b5f8115159050919050565b610a7681610a62565b82525050565b5f602082019050610a8f5f830184610a6d565b92915050565b5f8060208385031215610aab57610aaa61097b565b5b5f83013567ffffffffffffffff811115610ac857610ac761097f565b5b610ad48582860161098f565b92509250509250929050565b7f4e487b71000000000000000000000000000000000000000000000000000000005f52602260045260245ffd5b5f6002820490506001821680610b2457607f821691505b602082108103610b3757610b36610ae0565b5b50919050565b5f81905092915050565b828183375f83830152505050565b5f610b608385610b3d565b9350610b6d838584610b47565b82840190509392505050565b5f610b85828486610b55565b91508190509392505050565b7f4e487b71000000000000000000000000000000000000000000000000000000005f52604160045260245ffd5b5f819050815f5260205f209050919050565b5f6020601f8301049050919050565b5f82821b905092915050565b5f60088302610c1a7fffffffffffffffffffffffffffffffffffffffffffffffffffffffffffffffff82610bdf565b610c248683610bdf565b95508019841693508086168417925050509392505050565b5f819050919050565b5f819050919050565b5f610c68610c63610c5e84610c3c565b610c45565b610c3c565b9050919050565b5f819050919050565b610c8183610c4e565b610c95610c8d82610c6f565b848454610beb565b825550505050565b5f90565b610ca9610c9d565b610cb4818484610c78565b505050565b5b81811015610cd757610ccc5f82610ca1565b600181019050610cba565b5050565b601f821115610d1c57610ced81610bbe565b610cf684610bd0565b81016020851015610d05578190505b610d19610d1185610bd0565b830182610cb9565b50505b505050565b5f82821c905092915050565b5f610d3c5f1984600802610d21565b1980831691505092915050565b5f610d548383610d2d565b9150826002028217905092915050565b610d6d8261076d565b67ffffffffffffffff811115610d8657610d85610b91565b5b610d908254610b0d565b610d9b828285610cdb565b5f60209050601f831160018114610dcc575f8415610dba578287015190505b610dc48582610d49565b865550610e2b565b601f198416610dda86610bbe565b5f5b82811015610e0157848901518255600182019150602085019450602081019050610ddc565b86831015610e1e5784890151610e1a601f891682610d2d565b8355505b6001600288020188555050505b505050505050565b5f604083015f8301518482035f860152610e4d8282610850565b91505060208301518482036020860152610e678282610850565b9150508091505092915050565b5f6020820190508181035f830152610e8c8184610e33565b905092915050565b5f82905092915050565b610ea88383610e94565b67ffffffffffffffff811115610ec157610ec0610b91565b5b610ecb8254610b0d565b610ed6828285610cdb565b5f601f831160018114610f03575f8415610ef1578287013590505b610efb8582610d49565b865550610f62565b601f198416610f1186610bbe565b5f5b82811015610f3857848901358255600182019150602085019450602081019050610f13565b86831015610f555784890135610f51601f891682610d2d565b8355505b6001600288020188555050505b5050505050505056fea2646970667358221220f7c9a80332830d268f63948a37c037910c81b363274e3fcb9db5a809b3bb43c264736f6c63430008140033",
  "immutableReferences": {},
  "source": "// SPDX-License-Identifier: MIT\r\npragma solidity >=0.8.0 <0.9.0;\r\n\r\nstruct Message {\r\n    string from;\r\n    string message;\r\n}\r\n\r\ncontract Messenger {\r\n    //name to address\r\n    mapping(string => address) private nameToAddress;\r\n    //name to address\r\n    mapping(address => string) private addressToName;\r\n    //check address registered\r\n    mapping(address => bool) private addressToBool;\r\n    //address to messages mapping\r\n    mapping(address => Message[]) private userMessages;\r\n\r\n    event newMessage(address indexed _receiver, Message _message);\r\n\r\n    function send(\r\n        string calldata to,\r\n        string calldata data\r\n    ) public returns (bool) {\r\n        Message memory _message = Message(addressToName[msg.sender], data);\r\n        userMessages[nameToAddress[to]].push(_message);\r\n        emit newMessage(nameToAddress[to], _message);\r\n        return true;\r\n    }\r\n\r\n    function register(string calldata name) public {\r\n        //require(name);\r\n        nameToAddress[name] = msg.sender;\r\n        addressToBool[msg.sender] = true;\r\n        addressToName[msg.sender] = name;\r\n    }\r\n\r\n    function getMessages() public view returns (Message[] memory) {\r\n        return userMessages[msg.sender];\r\n    }\r\n\r\n    function isRegistered() public view returns (string memory) {\r\n        if (addressToBool[msg.sender]) {\r\n            return addressToName[msg.sender];\r\n        }\r\n        return \"NONE\";\r\n    }\r\n}\r\n",
  "sourcePath": "C:\\block-chain-ws\\messenger\\contracts\\Messenger.sol",
  "compiler": {
    "name": "solc",
    "version": "0.8.20+commit.a1b79de6.Emscripten.clang"
  },
  "schemaVersion": "3.4.14",
  "updatedAt": "2023-06-17T05:26:24.868Z",
  "networkType": "ethereum",
  "devdoc": {
    "kind": "dev",
    "methods": {},
    "version": 1
  },
  "userdoc": {
    "kind": "user",
    "methods": {},
    "version": 1
  }
}